{
  "contractName": "PetContract",
  "abi": [
    {
      "inputs": [],
      "stateMutability": "nonpayable",
      "type": "constructor"
    },
    {
      "anonymous": false,
      "inputs": [
        {
          "indexed": false,
          "internalType": "uint256",
          "name": "petId",
          "type": "uint256"
        },
        {
          "indexed": false,
          "internalType": "address payable",
          "name": "ownerId",
          "type": "address"
        },
        {
          "indexed": false,
          "internalType": "string",
          "name": "ownerName",
          "type": "string"
        },
        {
          "indexed": false,
          "internalType": "string",
          "name": "transferDate",
          "type": "string"
        },
        {
          "indexed": false,
          "internalType": "string",
          "name": "phone",
          "type": "string"
        },
        {
          "indexed": false,
          "internalType": "string",
          "name": "email",
          "type": "string"
        }
      ],
      "name": "OwnershipRecorded",
      "type": "event"
    },
    {
      "anonymous": false,
      "inputs": [
        {
          "indexed": false,
          "internalType": "uint256",
          "name": "petId",
          "type": "uint256"
        },
        {
          "indexed": false,
          "internalType": "string",
          "name": "id",
          "type": "string"
        },
        {
          "indexed": false,
          "internalType": "string",
          "name": "name",
          "type": "string"
        },
        {
          "indexed": false,
          "internalType": "string",
          "name": "gender",
          "type": "string"
        },
        {
          "indexed": false,
          "internalType": "string",
          "name": "dateOfBirth",
          "type": "string"
        }
      ],
      "name": "PetCreated",
      "type": "event"
    },
    {
      "anonymous": false,
      "inputs": [
        {
          "indexed": false,
          "internalType": "uint256",
          "name": "id",
          "type": "uint256"
        },
        {
          "indexed": false,
          "internalType": "string",
          "name": "name",
          "type": "string"
        },
        {
          "indexed": false,
          "internalType": "uint256",
          "name": "price",
          "type": "uint256"
        },
        {
          "indexed": false,
          "internalType": "address payable",
          "name": "owner",
          "type": "address"
        },
        {
          "indexed": false,
          "internalType": "enum PetContract.PetStatus",
          "name": "status",
          "type": "uint8"
        }
      ],
      "name": "PetPurchased",
      "type": "event"
    },
    {
      "anonymous": false,
      "inputs": [
        {
          "indexed": false,
          "internalType": "uint256",
          "name": "petId",
          "type": "uint256"
        },
        {
          "indexed": false,
          "internalType": "string",
          "name": "trainingType",
          "type": "string"
        },
        {
          "indexed": false,
          "internalType": "string",
          "name": "trainerName",
          "type": "string"
        },
        {
          "indexed": false,
          "internalType": "string",
          "name": "organization",
          "type": "string"
        },
        {
          "indexed": false,
          "internalType": "string",
          "name": "phone",
          "type": "string"
        },
        {
          "indexed": false,
          "internalType": "string",
          "name": "trainingDate",
          "type": "string"
        },
        {
          "indexed": false,
          "internalType": "string",
          "name": "progress",
          "type": "string"
        }
      ],
      "name": "TrainingRecCreated",
      "type": "event"
    },
    {
      "anonymous": false,
      "inputs": [
        {
          "indexed": false,
          "internalType": "uint256",
          "name": "petId",
          "type": "uint256"
        },
        {
          "indexed": false,
          "internalType": "string",
          "name": "vaccineName",
          "type": "string"
        },
        {
          "indexed": false,
          "internalType": "string",
          "name": "dateAdministered",
          "type": "string"
        },
        {
          "indexed": false,
          "internalType": "string",
          "name": "doctorName",
          "type": "string"
        },
        {
          "indexed": false,
          "internalType": "string",
          "name": "clinic",
          "type": "string"
        },
        {
          "indexed": false,
          "internalType": "string",
          "name": "phone",
          "type": "string"
        },
        {
          "indexed": false,
          "internalType": "string",
          "name": "email",
          "type": "string"
        }
      ],
      "name": "VaccinationRecCreated",
      "type": "event"
    },
    {
      "inputs": [],
      "name": "companyName",
      "outputs": [
        {
          "internalType": "string",
          "name": "",
          "type": "string"
        }
      ],
      "stateMutability": "view",
      "type": "function",
      "constant": true
    },
    {
      "inputs": [
        {
          "internalType": "uint256",
          "name": "",
          "type": "uint256"
        }
      ],
      "name": "pets",
      "outputs": [
        {
          "components": [
            {
              "internalType": "string",
              "name": "id",
              "type": "string"
            },
            {
              "internalType": "string",
              "name": "name",
              "type": "string"
            },
            {
              "internalType": "string",
              "name": "gender",
              "type": "string"
            },
            {
              "internalType": "string",
              "name": "dateOfBirth",
              "type": "string"
            },
            {
              "internalType": "uint256",
              "name": "price",
              "type": "uint256"
            },
            {
              "internalType": "enum PetContract.PetStatus",
              "name": "status",
              "type": "uint8"
            }
          ],
          "internalType": "struct PetContract.PetInformation",
          "name": "petInfo",
          "type": "tuple"
        }
      ],
      "stateMutability": "view",
      "type": "function",
      "constant": true
    },
    {
      "inputs": [],
      "name": "getCompanyName",
      "outputs": [
        {
          "internalType": "string",
          "name": "",
          "type": "string"
        }
      ],
      "stateMutability": "view",
      "type": "function",
      "constant": true
    },
    {
      "inputs": [],
      "name": "getNoOfPets",
      "outputs": [
        {
          "internalType": "uint256",
          "name": "",
          "type": "uint256"
        }
      ],
      "stateMutability": "view",
      "type": "function",
      "constant": true
    },
    {
      "inputs": [
        {
          "internalType": "uint256",
          "name": "petId",
          "type": "uint256"
        }
      ],
      "name": "getPetInfo",
      "outputs": [
        {
          "components": [
            {
              "internalType": "string",
              "name": "id",
              "type": "string"
            },
            {
              "internalType": "string",
              "name": "name",
              "type": "string"
            },
            {
              "internalType": "string",
              "name": "gender",
              "type": "string"
            },
            {
              "internalType": "string",
              "name": "dateOfBirth",
              "type": "string"
            },
            {
              "internalType": "uint256",
              "name": "price",
              "type": "uint256"
            },
            {
              "internalType": "enum PetContract.PetStatus",
              "name": "status",
              "type": "uint8"
            }
          ],
          "internalType": "struct PetContract.PetInformation",
          "name": "",
          "type": "tuple"
        }
      ],
      "stateMutability": "view",
      "type": "function",
      "constant": true
    },
    {
      "inputs": [
        {
          "internalType": "uint256",
          "name": "petId",
          "type": "uint256"
        }
      ],
      "name": "getOwnershipRecords",
      "outputs": [
        {
          "components": [
            {
              "internalType": "address payable",
              "name": "ownerId",
              "type": "address"
            },
            {
              "internalType": "string",
              "name": "ownerName",
              "type": "string"
            },
            {
              "internalType": "string",
              "name": "transferDate",
              "type": "string"
            },
            {
              "internalType": "string",
              "name": "phone",
              "type": "string"
            },
            {
              "internalType": "string",
              "name": "email",
              "type": "string"
            }
          ],
          "internalType": "struct PetContract.OwnershipRecord[]",
          "name": "",
          "type": "tuple[]"
        }
      ],
      "stateMutability": "view",
      "type": "function",
      "constant": true
    },
    {
      "inputs": [
        {
          "internalType": "uint256",
          "name": "petId",
          "type": "uint256"
        }
      ],
      "name": "getVaccinationRecords",
      "outputs": [
        {
          "components": [
            {
              "internalType": "string",
              "name": "vaccineName",
              "type": "string"
            },
            {
              "internalType": "string",
              "name": "dateAdministered",
              "type": "string"
            },
            {
              "internalType": "string",
              "name": "doctorname",
              "type": "string"
            },
            {
              "internalType": "string",
              "name": "clinic",
              "type": "string"
            },
            {
              "internalType": "string",
              "name": "phone",
              "type": "string"
            },
            {
              "internalType": "string",
              "name": "email",
              "type": "string"
            }
          ],
          "internalType": "struct PetContract.VaccinationRecord[]",
          "name": "",
          "type": "tuple[]"
        }
      ],
      "stateMutability": "view",
      "type": "function",
      "constant": true
    },
    {
      "inputs": [
        {
          "internalType": "uint256",
          "name": "petId",
          "type": "uint256"
        }
      ],
      "name": "getTrainingRecords",
      "outputs": [
        {
          "components": [
            {
              "internalType": "string",
              "name": "trainingType",
              "type": "string"
            },
            {
              "internalType": "string",
              "name": "traninerName",
              "type": "string"
            },
            {
              "internalType": "string",
              "name": "organization",
              "type": "string"
            },
            {
              "internalType": "string",
              "name": "phone",
              "type": "string"
            },
            {
              "internalType": "string",
              "name": "trainingDate",
              "type": "string"
            },
            {
              "internalType": "string",
              "name": "progress",
              "type": "string"
            }
          ],
          "internalType": "struct PetContract.TrainingRecord[]",
          "name": "",
          "type": "tuple[]"
        }
      ],
      "stateMutability": "view",
      "type": "function",
      "constant": true
    },
    {
      "inputs": [],
      "name": "registerPet",
      "outputs": [
        {
          "internalType": "uint256",
          "name": "",
          "type": "uint256"
        }
      ],
      "stateMutability": "nonpayable",
      "type": "function"
    },
    {
      "inputs": [
        {
          "internalType": "uint256",
          "name": "petId",
          "type": "uint256"
        },
        {
          "internalType": "string",
          "name": "_id",
          "type": "string"
        },
        {
          "internalType": "string",
          "name": "_name",
          "type": "string"
        },
        {
          "internalType": "string",
          "name": "_gender",
          "type": "string"
        },
        {
          "internalType": "string",
          "name": "_dateOfBirth",
          "type": "string"
        },
        {
          "internalType": "uint256",
          "name": "price",
          "type": "uint256"
        }
      ],
      "name": "addPetInfo",
      "outputs": [],
      "stateMutability": "nonpayable",
      "type": "function"
    },
    {
      "inputs": [
        {
          "internalType": "uint256",
          "name": "petId",
          "type": "uint256"
        },
        {
          "internalType": "string",
          "name": "_ownerName",
          "type": "string"
        },
        {
          "internalType": "string",
          "name": "_transferDate",
          "type": "string"
        },
        {
          "internalType": "string",
          "name": "_phone",
          "type": "string"
        },
        {
          "internalType": "string",
          "name": "_email",
          "type": "string"
        }
      ],
      "name": "addOwnerShipRecord",
      "outputs": [],
      "stateMutability": "nonpayable",
      "type": "function"
    },
    {
      "inputs": [
        {
          "internalType": "uint256",
          "name": "petId",
          "type": "uint256"
        },
        {
          "internalType": "string",
          "name": "_vaccineName",
          "type": "string"
        },
        {
          "internalType": "string",
          "name": "_dateAdministered",
          "type": "string"
        },
        {
          "internalType": "string",
          "name": "_doctorname",
          "type": "string"
        },
        {
          "internalType": "string",
          "name": "_clinic",
          "type": "string"
        },
        {
          "internalType": "string",
          "name": "_phone",
          "type": "string"
        },
        {
          "internalType": "string",
          "name": "_email",
          "type": "string"
        }
      ],
      "name": "addVaccinationRecord",
      "outputs": [],
      "stateMutability": "nonpayable",
      "type": "function"
    },
    {
      "inputs": [
        {
          "internalType": "uint256",
          "name": "petId",
          "type": "uint256"
        },
        {
          "internalType": "string",
          "name": "_trainingType",
          "type": "string"
        },
        {
          "internalType": "string",
          "name": "_trainerName",
          "type": "string"
        },
        {
          "internalType": "string",
          "name": "_organization",
          "type": "string"
        },
        {
          "internalType": "string",
          "name": "_phone",
          "type": "string"
        },
        {
          "internalType": "string",
          "name": "_trainingDate",
          "type": "string"
        },
        {
          "internalType": "string",
          "name": "_progress",
          "type": "string"
        }
      ],
      "name": "addTrainingRecord",
      "outputs": [],
      "stateMutability": "nonpayable",
      "type": "function"
    },
    {
      "inputs": [
        {
          "internalType": "uint256",
          "name": "_id",
          "type": "uint256"
        }
      ],
      "name": "purchasePet",
      "outputs": [],
      "stateMutability": "payable",
      "type": "function",
      "payable": true
    }
  ],
  "bytecode": "0x60806040523480156200001157600080fd5b5060006001819055506040518060400160405280600f81526020017f506574652773205065742053686f70000000000000000000000000000000000081525060009081620000609190620002e1565b50620003c8565b600081519050919050565b7f4e487b7100000000000000000000000000000000000000000000000000000000600052604160045260246000fd5b7f4e487b7100000000000000000000000000000000000000000000000000000000600052602260045260246000fd5b60006002820490506001821680620000e957607f821691505b602082108103620000ff57620000fe620000a1565b5b50919050565b60008190508160005260206000209050919050565b60006020601f8301049050919050565b600082821b905092915050565b600060088302620001697fffffffffffffffffffffffffffffffffffffffffffffffffffffffffffffffff826200012a565b6200017586836200012a565b95508019841693508086168417925050509392505050565b6000819050919050565b6000819050919050565b6000620001c2620001bc620001b6846200018d565b62000197565b6200018d565b9050919050565b6000819050919050565b620001de83620001a1565b620001f6620001ed82620001c9565b84845462000137565b825550505050565b600090565b6200020d620001fe565b6200021a818484620001d3565b505050565b5b8181101562000242576200023660008262000203565b60018101905062000220565b5050565b601f82111562000291576200025b8162000105565b62000266846200011a565b8101602085101562000276578190505b6200028e62000285856200011a565b8301826200021f565b50505b505050565b600082821c905092915050565b6000620002b66000198460080262000296565b1980831691505092915050565b6000620002d18383620002a3565b9150826002028217905092915050565b620002ec8262000067565b67ffffffffffffffff81111562000308576200030762000072565b5b620003148254620000d0565b6200032182828562000246565b600060209050601f83116001811462000359576000841562000344578287015190505b620003508582620002c3565b865550620003c0565b601f198416620003698662000105565b60005b8281101562000393578489015182556001820191506020850194506020810190506200036c565b86831015620003b35784890151620003af601f891682620002a3565b8355505b6001600288020188555050505b505050505050565b613cd480620003d86000396000f3fe6080604052600436106100dd5760003560e01c8063718bb4a41161007f578063c051b45f11610059578063c051b45f146102be578063ca7f9096146102fb578063cfb869bf14610317578063f5ec2eed14610354576100dd565b8063718bb4a41461023f5780637639b8301461026a578063a882c5d914610293576100dd565b806343cfbd65116100bb57806343cfbd651461018557806369c3f316146101b05780637070c173146101ed578063709efc5114610216576100dd565b806325a7b45e146100e2578063312222bd1461011f578063397877611461015c575b600080fd5b3480156100ee57600080fd5b5061010960048036038101906101049190612aad565b61037f565b6040516101169190612cf8565b60405180910390f35b34801561012b57600080fd5b5061014660048036038101906101419190612aad565b610692565b6040516101539190612e88565b60405180910390f35b34801561016857600080fd5b50610183600480360381019061017e9190612fdf565b610a73565b005b34801561019157600080fd5b5061019a610bb1565b6040516101a79190613173565b60405180910390f35b3480156101bc57600080fd5b506101d760048036038101906101d29190612aad565b610c43565b6040516101e491906132b9565b60405180910390f35b3480156101f957600080fd5b50610214600480360381019061020f91906132db565b610f00565b005b34801561022257600080fd5b5061023d600480360381019061023891906133c6565b611065565b005b34801561024b57600080fd5b50610254611196565b60405161026191906134d2565b60405180910390f35b34801561027657600080fd5b50610291600480360381019061028c9190612fdf565b6111b8565b005b34801561029f57600080fd5b506102a86112f6565b6040516102b591906134d2565b60405180910390f35b3480156102ca57600080fd5b506102e560048036038101906102e09190612aad565b611300565b6040516102f2919061365b565b60405180910390f35b61031560048036038101906103109190612aad565b6116e1565b005b34801561032357600080fd5b5061033e60048036038101906103399190612aad565b6126d8565b60405161034b91906132b9565b60405180910390f35b34801561036057600080fd5b5061036961298d565b6040516103769190613173565b60405180910390f35b606060026000838152602001908152602001600020600601805480602002602001604051908101604052809291908181526020016000905b8282101561068757838290600052602060002090600502016040518060a00160405290816000820160009054906101000a900473ffffffffffffffffffffffffffffffffffffffff1673ffffffffffffffffffffffffffffffffffffffff1673ffffffffffffffffffffffffffffffffffffffff168152602001600182018054610440906136ac565b80601f016020809104026020016040519081016040528092919081815260200182805461046c906136ac565b80156104b95780601f1061048e576101008083540402835291602001916104b9565b820191906000526020600020905b81548152906001019060200180831161049c57829003601f168201915b505050505081526020016002820180546104d2906136ac565b80601f01602080910402602001604051908101604052809291908181526020018280546104fe906136ac565b801561054b5780601f106105205761010080835404028352916020019161054b565b820191906000526020600020905b81548152906001019060200180831161052e57829003601f168201915b50505050508152602001600382018054610564906136ac565b80601f0160208091040260200160405190810160405280929190818152602001828054610590906136ac565b80156105dd5780601f106105b2576101008083540402835291602001916105dd565b820191906000526020600020905b8154815290600101906020018083116105c057829003601f168201915b505050505081526020016004820180546105f6906136ac565b80601f0160208091040260200160405190810160405280929190818152602001828054610622906136ac565b801561066f5780601f106106445761010080835404028352916020019161066f565b820191906000526020600020905b81548152906001019060200180831161065257829003601f168201915b505050505081525050815260200190600101906103b7565b505050509050919050565b606060026000838152602001908152602001600020600801805480602002602001604051908101604052809291908181526020016000905b82821015610a6857838290600052602060002090600602016040518060c00160405290816000820180546106fd906136ac565b80601f0160208091040260200160405190810160405280929190818152602001828054610729906136ac565b80156107765780601f1061074b57610100808354040283529160200191610776565b820191906000526020600020905b81548152906001019060200180831161075957829003601f168201915b5050505050815260200160018201805461078f906136ac565b80601f01602080910402602001604051908101604052809291908181526020018280546107bb906136ac565b80156108085780601f106107dd57610100808354040283529160200191610808565b820191906000526020600020905b8154815290600101906020018083116107eb57829003601f168201915b50505050508152602001600282018054610821906136ac565b80601f016020809104026020016040519081016040528092919081815260200182805461084d906136ac565b801561089a5780601f1061086f5761010080835404028352916020019161089a565b820191906000526020600020905b81548152906001019060200180831161087d57829003601f168201915b505050505081526020016003820180546108b3906136ac565b80601f01602080910402602001604051908101604052809291908181526020018280546108df906136ac565b801561092c5780601f106109015761010080835404028352916020019161092c565b820191906000526020600020905b81548152906001019060200180831161090f57829003601f168201915b50505050508152602001600482018054610945906136ac565b80601f0160208091040260200160405190810160405280929190818152602001828054610971906136ac565b80156109be5780601f10610993576101008083540402835291602001916109be565b820191906000526020600020905b8154815290600101906020018083116109a157829003601f168201915b505050505081526020016005820180546109d7906136ac565b80601f0160208091040260200160405190810160405280929190818152602001828054610a03906136ac565b8015610a505780601f10610a2557610100808354040283529160200191610a50565b820191906000526020600020905b815481529060010190602001808311610a3357829003601f168201915b505050505081525050815260200190600101906106ca565b505050509050919050565b600260008881526020019081526020016000206007016040518060c001604052808881526020018781526020018681526020018581526020018481526020018381525090806001815401808255809150506001900390600052602060002090600602016000909190919091506000820151816000019081610af49190613889565b506020820151816001019081610b0a9190613889565b506040820151816002019081610b209190613889565b506060820151816003019081610b369190613889565b506080820151816004019081610b4c9190613889565b5060a0820151816005019081610b629190613889565b5050507f27115cf54a94779e1202bfecf2ef5752ced12949ebe1a0a74604a3d84c96c01387878787878787604051610ba0979695949392919061395b565b60405180910390a150505050505050565b606060008054610bc0906136ac565b80601f0160208091040260200160405190810160405280929190818152602001828054610bec906136ac565b8015610c395780601f10610c0e57610100808354040283529160200191610c39565b820191906000526020600020905b815481529060010190602001808311610c1c57829003601f168201915b5050505050905090565b610c4b612a1b565b600260008381526020019081526020016000206000016040518060c0016040529081600082018054610c7c906136ac565b80601f0160208091040260200160405190810160405280929190818152602001828054610ca8906136ac565b8015610cf55780601f10610cca57610100808354040283529160200191610cf5565b820191906000526020600020905b815481529060010190602001808311610cd857829003601f168201915b50505050508152602001600182018054610d0e906136ac565b80601f0160208091040260200160405190810160405280929190818152602001828054610d3a906136ac565b8015610d875780601f10610d5c57610100808354040283529160200191610d87565b820191906000526020600020905b815481529060010190602001808311610d6a57829003601f168201915b50505050508152602001600282018054610da0906136ac565b80601f0160208091040260200160405190810160405280929190818152602001828054610dcc906136ac565b8015610e195780601f10610dee57610100808354040283529160200191610e19565b820191906000526020600020905b815481529060010190602001808311610dfc57829003601f168201915b50505050508152602001600382018054610e32906136ac565b80601f0160208091040260200160405190810160405280929190818152602001828054610e5e906136ac565b8015610eab5780601f10610e8057610100808354040283529160200191610eab565b820191906000526020600020905b815481529060010190602001808311610e8e57829003601f168201915b50505050508152602001600482015481526020016005820160009054906101000a900460ff166001811115610ee357610ee26131a4565b5b6001811115610ef557610ef46131a4565b5b815250509050919050565b600260008681526020019081526020016000206006016040518060a001604052803373ffffffffffffffffffffffffffffffffffffffff16815260200186815260200185815260200184815260200183815250908060018154018082558091505060019003906000526020600020906005020160009091909190915060008201518160000160006101000a81548173ffffffffffffffffffffffffffffffffffffffff021916908373ffffffffffffffffffffffffffffffffffffffff1602179055506020820151816001019081610fd89190613889565b506040820151816002019081610fee9190613889565b5060608201518160030190816110049190613889565b50608082015181600401908161101a9190613889565b5050507ff17a4feb9aed2ed9ee22b1ea90e2035b091ac368273923fc4fb9c560e6b2c33985338686868660405161105696959493929190613a03565b60405180910390a15050505050565b6040518060c001604052808681526020018581526020018481526020018381526020018281526020016001808111156110a1576110a06131a4565b5b8152506002600088815260200190815260200160002060000160008201518160000190816110cf9190613889565b5060208201518160010190816110e59190613889565b5060408201518160020190816110fb9190613889565b5060608201518160030190816111119190613889565b506080820151816004015560a08201518160050160006101000a81548160ff02191690836001811115611147576111466131a4565b5b02179055509050507f9d748ac4431e67dd00094d0aaf95fdedbdbc7e34463763447b24ccb462eed6298686868686604051611186959493929190613a80565b60405180910390a1505050505050565b6000600160008154809291906111ab90613b1e565b9190505550600154905090565b600260008881526020019081526020016000206008016040518060c0016040528088815260200187815260200186815260200185815260200184815260200183815250908060018154018082558091505060019003906000526020600020906006020160009091909190915060008201518160000190816112399190613889565b50602082015181600101908161124f9190613889565b5060408201518160020190816112659190613889565b50606082015181600301908161127b9190613889565b5060808201518160040190816112919190613889565b5060a08201518160050190816112a79190613889565b5050507f54d5f4b159f4693ba185db74e1916e71c9b1f493647471173999b1f37e2df06b878787878787876040516112e5979695949392919061395b565b60405180910390a150505050505050565b6000600154905090565b606060026000838152602001908152602001600020600701805480602002602001604051908101604052809291908181526020016000905b828210156116d657838290600052602060002090600602016040518060c001604052908160008201805461136b906136ac565b80601f0160208091040260200160405190810160405280929190818152602001828054611397906136ac565b80156113e45780601f106113b9576101008083540402835291602001916113e4565b820191906000526020600020905b8154815290600101906020018083116113c757829003601f168201915b505050505081526020016001820180546113fd906136ac565b80601f0160208091040260200160405190810160405280929190818152602001828054611429906136ac565b80156114765780601f1061144b57610100808354040283529160200191611476565b820191906000526020600020905b81548152906001019060200180831161145957829003601f168201915b5050505050815260200160028201805461148f906136ac565b80601f01602080910402602001604051908101604052809291908181526020018280546114bb906136ac565b80156115085780601f106114dd57610100808354040283529160200191611508565b820191906000526020600020905b8154815290600101906020018083116114eb57829003601f168201915b50505050508152602001600382018054611521906136ac565b80601f016020809104026020016040519081016040528092919081815260200182805461154d906136ac565b801561159a5780601f1061156f5761010080835404028352916020019161159a565b820191906000526020600020905b81548152906001019060200180831161157d57829003601f168201915b505050505081526020016004820180546115b3906136ac565b80601f01602080910402602001604051908101604052809291908181526020018280546115df906136ac565b801561162c5780601f106116015761010080835404028352916020019161162c565b820191906000526020600020905b81548152906001019060200180831161160f57829003601f168201915b50505050508152602001600582018054611645906136ac565b80601f0160208091040260200160405190810160405280929190818152602001828054611671906136ac565b80156116be5780601f10611693576101008083540402835291602001916116be565b820191906000526020600020905b8154815290600101906020018083116116a157829003601f168201915b50505050508152505081526020019060010190611338565b505050509050919050565b600060026000838152602001908152602001600020604051806080016040529081600082016040518060c0016040529081600082018054611721906136ac565b80601f016020809104026020016040519081016040528092919081815260200182805461174d906136ac565b801561179a5780601f1061176f5761010080835404028352916020019161179a565b820191906000526020600020905b81548152906001019060200180831161177d57829003601f168201915b505050505081526020016001820180546117b3906136ac565b80601f01602080910402602001604051908101604052809291908181526020018280546117df906136ac565b801561182c5780601f106118015761010080835404028352916020019161182c565b820191906000526020600020905b81548152906001019060200180831161180f57829003601f168201915b50505050508152602001600282018054611845906136ac565b80601f0160208091040260200160405190810160405280929190818152602001828054611871906136ac565b80156118be5780601f10611893576101008083540402835291602001916118be565b820191906000526020600020905b8154815290600101906020018083116118a157829003601f168201915b505050505081526020016003820180546118d7906136ac565b80601f0160208091040260200160405190810160405280929190818152602001828054611903906136ac565b80156119505780601f1061192557610100808354040283529160200191611950565b820191906000526020600020905b81548152906001019060200180831161193357829003601f168201915b50505050508152602001600482015481526020016005820160009054906101000a900460ff166001811115611988576119876131a4565b5b600181111561199a576119996131a4565b5b81525050815260200160068201805480602002602001604051908101604052809291908181526020016000905b82821015611c9757838290600052602060002090600502016040518060a00160405290816000820160009054906101000a900473ffffffffffffffffffffffffffffffffffffffff1673ffffffffffffffffffffffffffffffffffffffff1673ffffffffffffffffffffffffffffffffffffffff168152602001600182018054611a50906136ac565b80601f0160208091040260200160405190810160405280929190818152602001828054611a7c906136ac565b8015611ac95780601f10611a9e57610100808354040283529160200191611ac9565b820191906000526020600020905b815481529060010190602001808311611aac57829003601f168201915b50505050508152602001600282018054611ae2906136ac565b80601f0160208091040260200160405190810160405280929190818152602001828054611b0e906136ac565b8015611b5b5780601f10611b3057610100808354040283529160200191611b5b565b820191906000526020600020905b815481529060010190602001808311611b3e57829003601f168201915b50505050508152602001600382018054611b74906136ac565b80601f0160208091040260200160405190810160405280929190818152602001828054611ba0906136ac565b8015611bed5780601f10611bc257610100808354040283529160200191611bed565b820191906000526020600020905b815481529060010190602001808311611bd057829003601f168201915b50505050508152602001600482018054611c06906136ac565b80601f0160208091040260200160405190810160405280929190818152602001828054611c32906136ac565b8015611c7f5780601f10611c5457610100808354040283529160200191611c7f565b820191906000526020600020905b815481529060010190602001808311611c6257829003601f168201915b505050505081525050815260200190600101906119c7565b50505050815260200160078201805480602002602001604051908101604052809291908181526020016000905b8282101561206257838290600052602060002090600602016040518060c0016040529081600082018054611cf7906136ac565b80601f0160208091040260200160405190810160405280929190818152602001828054611d23906136ac565b8015611d705780601f10611d4557610100808354040283529160200191611d70565b820191906000526020600020905b815481529060010190602001808311611d5357829003601f168201915b50505050508152602001600182018054611d89906136ac565b80601f0160208091040260200160405190810160405280929190818152602001828054611db5906136ac565b8015611e025780601f10611dd757610100808354040283529160200191611e02565b820191906000526020600020905b815481529060010190602001808311611de557829003601f168201915b50505050508152602001600282018054611e1b906136ac565b80601f0160208091040260200160405190810160405280929190818152602001828054611e47906136ac565b8015611e945780601f10611e6957610100808354040283529160200191611e94565b820191906000526020600020905b815481529060010190602001808311611e7757829003601f168201915b50505050508152602001600382018054611ead906136ac565b80601f0160208091040260200160405190810160405280929190818152602001828054611ed9906136ac565b8015611f265780601f10611efb57610100808354040283529160200191611f26565b820191906000526020600020905b815481529060010190602001808311611f0957829003601f168201915b50505050508152602001600482018054611f3f906136ac565b80601f0160208091040260200160405190810160405280929190818152602001828054611f6b906136ac565b8015611fb85780601f10611f8d57610100808354040283529160200191611fb8565b820191906000526020600020905b815481529060010190602001808311611f9b57829003601f168201915b50505050508152602001600582018054611fd1906136ac565b80601f0160208091040260200160405190810160405280929190818152602001828054611ffd906136ac565b801561204a5780601f1061201f5761010080835404028352916020019161204a565b820191906000526020600020905b81548152906001019060200180831161202d57829003601f168201915b50505050508152505081526020019060010190611cc4565b50505050815260200160088201805480602002602001604051908101604052809291908181526020016000905b8282101561242d57838290600052602060002090600602016040518060c00160405290816000820180546120c2906136ac565b80601f01602080910402602001604051908101604052809291908181526020018280546120ee906136ac565b801561213b5780601f106121105761010080835404028352916020019161213b565b820191906000526020600020905b81548152906001019060200180831161211e57829003601f168201915b50505050508152602001600182018054612154906136ac565b80601f0160208091040260200160405190810160405280929190818152602001828054612180906136ac565b80156121cd5780601f106121a2576101008083540402835291602001916121cd565b820191906000526020600020905b8154815290600101906020018083116121b057829003601f168201915b505050505081526020016002820180546121e6906136ac565b80601f0160208091040260200160405190810160405280929190818152602001828054612212906136ac565b801561225f5780601f106122345761010080835404028352916020019161225f565b820191906000526020600020905b81548152906001019060200180831161224257829003601f168201915b50505050508152602001600382018054612278906136ac565b80601f01602080910402602001604051908101604052809291908181526020018280546122a4906136ac565b80156122f15780601f106122c6576101008083540402835291602001916122f1565b820191906000526020600020905b8154815290600101906020018083116122d457829003601f168201915b5050505050815260200160048201805461230a906136ac565b80601f0160208091040260200160405190810160405280929190818152602001828054612336906136ac565b80156123835780601f1061235857610100808354040283529160200191612383565b820191906000526020600020905b81548152906001019060200180831161236657829003601f168201915b5050505050815260200160058201805461239c906136ac565b80601f01602080910402602001604051908101604052809291908181526020018280546123c8906136ac565b80156124155780601f106123ea57610100808354040283529160200191612415565b820191906000526020600020905b8154815290600101906020018083116123f857829003601f168201915b5050505050815250508152602001906001019061208f565b5050505081525050905060008160200151519050600082602001516001836124559190613b66565b8151811061246657612465613b9a565b5b60200260200101516000015190506000600154118015612490575060008360000151600001515114155b6124cf576040517f08c379a00000000000000000000000000000000000000000000000000000000081526004016124c690613c15565b60405180910390fd5b8260000151608001513410156124e457600080fd5b6001808111156124f7576124f66131a4565b5b836000015160a001516001811115612512576125116131a4565b5b1461251c57600080fd5b3373ffffffffffffffffffffffffffffffffffffffff168173ffffffffffffffffffffffffffffffffffffffff160361255457600080fd5b6000836000015160a001906001811115612571576125706131a4565b5b90816001811115612585576125846131a4565b5b8152505082600001516002600086815260200190815260200160002060000160008201518160000190816125b99190613889565b5060208201518160010190816125cf9190613889565b5060408201518160020190816125e59190613889565b5060608201518160030190816125fb9190613889565b506080820151816004015560a08201518160050160006101000a81548160ff02191690836001811115612631576126306131a4565b5b02179055509050508073ffffffffffffffffffffffffffffffffffffffff166108fc349081150290604051600060405180830381858888f1935050505015801561267f573d6000803e3d6000fd5b507f9d04bde50a3c30051afb33010f89932d7b8f3b7e0b09c2b30bbee2f223f7b6a26001548460000151602001518560000151608001513360006040516126ca959493929190613c44565b60405180910390a150505050565b6002602052806000526040600020600091509050806000016040518060c001604052908160008201805461270b906136ac565b80601f0160208091040260200160405190810160405280929190818152602001828054612737906136ac565b80156127845780601f1061275957610100808354040283529160200191612784565b820191906000526020600020905b81548152906001019060200180831161276757829003601f168201915b5050505050815260200160018201805461279d906136ac565b80601f01602080910402602001604051908101604052809291908181526020018280546127c9906136ac565b80156128165780601f106127eb57610100808354040283529160200191612816565b820191906000526020600020905b8154815290600101906020018083116127f957829003601f168201915b5050505050815260200160028201805461282f906136ac565b80601f016020809104026020016040519081016040528092919081815260200182805461285b906136ac565b80156128a85780601f1061287d576101008083540402835291602001916128a8565b820191906000526020600020905b81548152906001019060200180831161288b57829003601f168201915b505050505081526020016003820180546128c1906136ac565b80601f01602080910402602001604051908101604052809291908181526020018280546128ed906136ac565b801561293a5780601f1061290f5761010080835404028352916020019161293a565b820191906000526020600020905b81548152906001019060200180831161291d57829003601f168201915b50505050508152602001600482015481526020016005820160009054906101000a900460ff166001811115612972576129716131a4565b5b6001811115612984576129836131a4565b5b81525050905081565b6000805461299a906136ac565b80601f01602080910402602001604051908101604052809291908181526020018280546129c6906136ac565b8015612a135780601f106129e857610100808354040283529160200191612a13565b820191906000526020600020905b8154815290600101906020018083116129f657829003601f168201915b505050505081565b6040518060c00160405280606081526020016060815260200160608152602001606081526020016000815260200160006001811115612a5d57612a5c6131a4565b5b81525090565b6000604051905090565b600080fd5b600080fd5b6000819050919050565b612a8a81612a77565b8114612a9557600080fd5b50565b600081359050612aa781612a81565b92915050565b600060208284031215612ac357612ac2612a6d565b5b6000612ad184828501612a98565b91505092915050565b600081519050919050565b600082825260208201905092915050565b6000819050602082019050919050565b600073ffffffffffffffffffffffffffffffffffffffff82169050919050565b6000612b3182612b06565b9050919050565b612b4181612b26565b82525050565b600081519050919050565b600082825260208201905092915050565b60005b83811015612b81578082015181840152602081019050612b66565b60008484015250505050565b6000601f19601f8301169050919050565b6000612ba982612b47565b612bb38185612b52565b9350612bc3818560208601612b63565b612bcc81612b8d565b840191505092915050565b600060a083016000830151612bef6000860182612b38565b5060208301518482036020860152612c078282612b9e565b91505060408301518482036040860152612c218282612b9e565b91505060608301518482036060860152612c3b8282612b9e565b91505060808301518482036080860152612c558282612b9e565b9150508091505092915050565b6000612c6e8383612bd7565b905092915050565b6000602082019050919050565b6000612c8e82612ada565b612c988185612ae5565b935083602082028501612caa85612af6565b8060005b85811015612ce65784840389528151612cc78582612c62565b9450612cd283612c76565b925060208a01995050600181019050612cae565b50829750879550505050505092915050565b60006020820190508181036000830152612d128184612c83565b905092915050565b600081519050919050565b600082825260208201905092915050565b6000819050602082019050919050565b600060c0830160008301518482036000860152612d638282612b9e565b91505060208301518482036020860152612d7d8282612b9e565b91505060408301518482036040860152612d978282612b9e565b91505060608301518482036060860152612db18282612b9e565b91505060808301518482036080860152612dcb8282612b9e565b91505060a083015184820360a0860152612de58282612b9e565b9150508091505092915050565b6000612dfe8383612d46565b905092915050565b6000602082019050919050565b6000612e1e82612d1a565b612e288185612d25565b935083602082028501612e3a85612d36565b8060005b85811015612e765784840389528151612e578582612df2565b9450612e6283612e06565b925060208a01995050600181019050612e3e565b50829750879550505050505092915050565b60006020820190508181036000830152612ea28184612e13565b905092915050565b600080fd5b600080fd5b7f4e487b7100000000000000000000000000000000000000000000000000000000600052604160045260246000fd5b612eec82612b8d565b810181811067ffffffffffffffff82111715612f0b57612f0a612eb4565b5b80604052505050565b6000612f1e612a63565b9050612f2a8282612ee3565b919050565b600067ffffffffffffffff821115612f4a57612f49612eb4565b5b612f5382612b8d565b9050602081019050919050565b82818337600083830152505050565b6000612f82612f7d84612f2f565b612f14565b905082815260208101848484011115612f9e57612f9d612eaf565b5b612fa9848285612f60565b509392505050565b600082601f830112612fc657612fc5612eaa565b5b8135612fd6848260208601612f6f565b91505092915050565b600080600080600080600060e0888a031215612ffe57612ffd612a6d565b5b600061300c8a828b01612a98565b975050602088013567ffffffffffffffff81111561302d5761302c612a72565b5b6130398a828b01612fb1565b965050604088013567ffffffffffffffff81111561305a57613059612a72565b5b6130668a828b01612fb1565b955050606088013567ffffffffffffffff81111561308757613086612a72565b5b6130938a828b01612fb1565b945050608088013567ffffffffffffffff8111156130b4576130b3612a72565b5b6130c08a828b01612fb1565b93505060a088013567ffffffffffffffff8111156130e1576130e0612a72565b5b6130ed8a828b01612fb1565b92505060c088013567ffffffffffffffff81111561310e5761310d612a72565b5b61311a8a828b01612fb1565b91505092959891949750929550565b600082825260208201905092915050565b600061314582612b47565b61314f8185613129565b935061315f818560208601612b63565b61316881612b8d565b840191505092915050565b6000602082019050818103600083015261318d818461313a565b905092915050565b61319e81612a77565b82525050565b7f4e487b7100000000000000000000000000000000000000000000000000000000600052602160045260246000fd5b600281106131e4576131e36131a4565b5b50565b60008190506131f5826131d3565b919050565b6000613205826131e7565b9050919050565b613215816131fa565b82525050565b600060c08301600083015184820360008601526132388282612b9e565b915050602083015184820360208601526132528282612b9e565b9150506040830151848203604086015261326c8282612b9e565b915050606083015184820360608601526132868282612b9e565b915050608083015161329b6080860182613195565b5060a08301516132ae60a086018261320c565b508091505092915050565b600060208201905081810360008301526132d3818461321b565b905092915050565b600080600080600060a086880312156132f7576132f6612a6d565b5b600061330588828901612a98565b955050602086013567ffffffffffffffff81111561332657613325612a72565b5b61333288828901612fb1565b945050604086013567ffffffffffffffff81111561335357613352612a72565b5b61335f88828901612fb1565b935050606086013567ffffffffffffffff8111156133805761337f612a72565b5b61338c88828901612fb1565b925050608086013567ffffffffffffffff8111156133ad576133ac612a72565b5b6133b988828901612fb1565b9150509295509295909350565b60008060008060008060c087890312156133e3576133e2612a6d565b5b60006133f189828a01612a98565b965050602087013567ffffffffffffffff81111561341257613411612a72565b5b61341e89828a01612fb1565b955050604087013567ffffffffffffffff81111561343f5761343e612a72565b5b61344b89828a01612fb1565b945050606087013567ffffffffffffffff81111561346c5761346b612a72565b5b61347889828a01612fb1565b935050608087013567ffffffffffffffff81111561349957613498612a72565b5b6134a589828a01612fb1565b92505060a06134b689828a01612a98565b9150509295509295509295565b6134cc81612a77565b82525050565b60006020820190506134e760008301846134c3565b92915050565b600081519050919050565b600082825260208201905092915050565b6000819050602082019050919050565b600060c08301600083015184820360008601526135368282612b9e565b915050602083015184820360208601526135508282612b9e565b9150506040830151848203604086015261356a8282612b9e565b915050606083015184820360608601526135848282612b9e565b9150506080830151848203608086015261359e8282612b9e565b91505060a083015184820360a08601526135b88282612b9e565b9150508091505092915050565b60006135d18383613519565b905092915050565b6000602082019050919050565b60006135f1826134ed565b6135fb81856134f8565b93508360208202850161360d85613509565b8060005b85811015613649578484038952815161362a85826135c5565b9450613635836135d9565b925060208a01995050600181019050613611565b50829750879550505050505092915050565b6000602082019050818103600083015261367581846135e6565b905092915050565b7f4e487b7100000000000000000000000000000000000000000000000000000000600052602260045260246000fd5b600060028204905060018216806136c457607f821691505b6020821081036136d7576136d661367d565b5b50919050565b60008190508160005260206000209050919050565b60006020601f8301049050919050565b600082821b905092915050565b60006008830261373f7fffffffffffffffffffffffffffffffffffffffffffffffffffffffffffffffff82613702565b6137498683613702565b95508019841693508086168417925050509392505050565b6000819050919050565b600061378661378161377c84612a77565b613761565b612a77565b9050919050565b6000819050919050565b6137a08361376b565b6137b46137ac8261378d565b84845461370f565b825550505050565b600090565b6137c96137bc565b6137d4818484613797565b505050565b5b818110156137f8576137ed6000826137c1565b6001810190506137da565b5050565b601f82111561383d5761380e816136dd565b613817846136f2565b81016020851015613826578190505b61383a613832856136f2565b8301826137d9565b50505b505050565b600082821c905092915050565b600061386060001984600802613842565b1980831691505092915050565b6000613879838361384f565b9150826002028217905092915050565b61389282612b47565b67ffffffffffffffff8111156138ab576138aa612eb4565b5b6138b582546136ac565b6138c08282856137fc565b600060209050601f8311600181146138f357600084156138e1578287015190505b6138eb858261386d565b865550613953565b601f198416613901866136dd565b60005b8281101561392957848901518255600182019150602085019450602081019050613904565b868310156139465784890151613942601f89168261384f565b8355505b6001600288020188555050505b505050505050565b600060e082019050613970600083018a6134c3565b8181036020830152613982818961313a565b90508181036040830152613996818861313a565b905081810360608301526139aa818761313a565b905081810360808301526139be818661313a565b905081810360a08301526139d2818561313a565b905081810360c08301526139e6818461313a565b905098975050505050505050565b6139fd81612b26565b82525050565b600060c082019050613a1860008301896134c3565b613a2560208301886139f4565b8181036040830152613a37818761313a565b90508181036060830152613a4b818661313a565b90508181036080830152613a5f818561313a565b905081810360a0830152613a73818461313a565b9050979650505050505050565b600060a082019050613a9560008301886134c3565b8181036020830152613aa7818761313a565b90508181036040830152613abb818661313a565b90508181036060830152613acf818561313a565b90508181036080830152613ae3818461313a565b90509695505050505050565b7f4e487b7100000000000000000000000000000000000000000000000000000000600052601160045260246000fd5b6000613b2982612a77565b91507fffffffffffffffffffffffffffffffffffffffffffffffffffffffffffffffff8203613b5b57613b5a613aef565b5b600182019050919050565b6000613b7182612a77565b9150613b7c83612a77565b9250828203905081811115613b9457613b93613aef565b5b92915050565b7f4e487b7100000000000000000000000000000000000000000000000000000000600052603260045260246000fd5b7f5065742049642063616e6e6f7420626520656d70747900000000000000000000600082015250565b6000613bff601683613129565b9150613c0a82613bc9565b602082019050919050565b60006020820190508181036000830152613c2e81613bf2565b9050919050565b613c3e816131fa565b82525050565b600060a082019050613c5960008301886134c3565b8181036020830152613c6b818761313a565b9050613c7a60408301866134c3565b613c8760608301856139f4565b613c946080830184613c35565b969550505050505056fea2646970667358221220d4e984d35abfd896cb7205210caad27a7f6dd171c8ab6109f10f427e38fe0bbb64736f6c63430008130033",
  "immutableReferences": {},
  "source": "// SPDX-License-Identifier: MIT\r\npragma solidity ^0.8.19;\r\n\r\ncontract PetContract {\r\n    enum PetStatus {Sold, Available}\r\n    \r\n    string public companyName;\r\n    uint petCount;\r\n\r\n    // Constructor code is only run when the contract is created\r\n    constructor() {\r\n        petCount=0;\r\n        companyName = \"Pete's Pet Shop\";\r\n    }\r\n\r\n    //declare the structure of the pet data\r\n   struct PetInformation {\r\n        string id;\r\n        string name;\r\n        string gender;\r\n        string dateOfBirth;\r\n        uint price;\r\n        PetStatus status;\r\n    }\r\n\r\n    //declare the structure for the owner data\r\n    struct OwnershipRecord {\r\n        address payable ownerId;\r\n        string ownerName;\r\n        string transferDate;\r\n        string phone;\r\n        string email;  \r\n    } \r\n\r\n    // declare the structure for the vaccination record\r\n    struct VaccinationRecord {\r\n        string vaccineName;\r\n        string dateAdministered;\r\n        string doctorname;\r\n        string clinic;\r\n        string phone;\r\n        string email;\r\n    }\r\n\r\n    // declare the structure of the training record\r\n    struct TrainingRecord {\r\n        string trainingType;\r\n        string traninerName;\r\n        string organization;\r\n        string phone;\r\n        string trainingDate;\r\n        string progress;\r\n    }\r\n\r\n    //declare the structure for the pet information - \r\n    //which consists of petInfo, ownership, vaccination and trainingrecord\r\n    struct Pet {\r\n        PetInformation petInfo;\r\n        OwnershipRecord[] ownershipRecords;\r\n        VaccinationRecord[] vaccinationHistory;\r\n        TrainingRecord[] trainingHistory;\r\n    }\r\n    //map the pet id to the Pet structure and hold them in the mapping variable pets\r\n    mapping(uint256 => Pet) public pets;\r\n\r\n    //write the getter functions\r\n    // function to get the company name getCompanyName() \r\n    function getCompanyName() public view returns(string memory){\r\n        return companyName;\r\n    }\r\n\r\n    //Write a function getNoOfPets to obtain the petCount\r\n    function getNoOfPets() public view returns (uint) {\r\n        return petCount;\r\n    }\r\n\r\n     // Function to retrieve pet  information\r\n    function getPetInfo(uint256 petId) public view returns (PetInformation memory) {\r\n        return pets[petId].petInfo;\r\n    }\r\n\r\n     // Function to retrieve ownership records\r\n    function getOwnershipRecords(uint256 petId) public view returns (OwnershipRecord[] memory) {\r\n        return pets[petId].ownershipRecords;\r\n    }\r\n\r\n    // Function to retrieve vaccination records\r\n    function getVaccinationRecords(uint256 petId) public view returns (VaccinationRecord[] memory) {\r\n        return pets[petId].vaccinationHistory;\r\n    }\r\n\r\n    // Function to retrieve training records\r\n    function getTrainingRecords(uint256 petId) public view returns (TrainingRecord[] memory) {\r\n        return pets[petId].trainingHistory;\r\n    }\r\n\r\n    //function to register the pet\r\n    function registerPet() public returns (uint256) {\r\n        petCount++;    \r\n        return petCount;\r\n    }\r\n\r\n    //create the event\r\n    event PetCreated(\r\n        uint256 petId,\r\n        string id,\r\n        string name,\r\n        string gender,\r\n        string dateOfBirth\r\n    );\r\n          \r\n    // Function to add pet  information\r\n    function addPetInfo(\r\n        uint256 petId,\r\n        string memory _id,\r\n        string memory _name,\r\n        string memory _gender,\r\n        string memory _dateOfBirth,\r\n        uint price\r\n    ) public {\r\n        pets[petId].petInfo = PetInformation(_id, _name, _gender, _dateOfBirth, price, PetStatus.Available);\r\n        emit PetCreated(petId, _id, _name, _gender, _dateOfBirth);\r\n    }\r\n\r\n    event OwnershipRecorded(\r\n    uint256 petId,\r\n    address payable ownerId,\r\n    string ownerName,\r\n    string transferDate,\r\n    string phone,\r\n    string email\r\n\r\n);\r\n\r\n// Function to add a new ownership record\r\n    function addOwnerShipRecord (uint256 petId, \r\n        string memory _ownerName,\r\n        string memory _transferDate,\r\n        string memory _phone,\r\n        string memory _email ) public {\r\n            pets[petId].ownershipRecords.push(OwnershipRecord(payable(msg.sender), _ownerName, _transferDate, _phone, _email));\r\n            emit OwnershipRecorded(petId, payable(msg.sender), _ownerName, _transferDate, _phone, _email);\r\n    }\r\n\r\n    event VaccinationRecCreated(\r\n    uint256 petId,\r\n    string vaccineName,\r\n    string dateAdministered,\r\n    string doctorName,\r\n    string clinic,\r\n    string phone,\r\n    string email\r\n    );\r\n\r\n    function addVaccinationRecord (uint256 petId, \r\n        string memory _vaccineName,\r\n        string memory _dateAdministered,\r\n        string memory _doctorname,\r\n        string memory _clinic,\r\n        string memory _phone,\r\n        string memory _email) public {\r\n            pets[petId].vaccinationHistory.push(VaccinationRecord(_vaccineName, _dateAdministered, _doctorname, _clinic, _phone, _email));\r\n            emit VaccinationRecCreated(petId, _vaccineName, _dateAdministered, _doctorname, _clinic, _phone, _email);\r\n    }\r\n\r\n\r\n    event TrainingRecCreated(\r\n    uint256 petId,\r\n    string trainingType,\r\n    string trainerName,\r\n    string organization,\r\n    string phone,\r\n    string trainingDate,\r\n    string progress\r\n    );\r\n\r\n\r\n    function addTrainingRecord (uint256 petId, \r\n         string memory _trainingType,\r\n        string memory _trainerName,\r\n        string memory _organization,\r\n        string memory _phone,\r\n        string memory _trainingDate,\r\n        string memory _progress) public {\r\n            pets[petId].trainingHistory.push(TrainingRecord(_trainingType, _trainerName, _organization, _phone,\r\n        _trainingDate, _progress));\r\n         emit TrainingRecCreated(petId, _trainingType, _trainerName, _organization, _phone, _trainingDate, _progress);\r\n    }\r\n\r\n    \r\n    event PetPurchased(\r\n        uint id,\r\n        string name,\r\n        uint price,\r\n        address payable owner,\r\n        PetStatus status\r\n    );\r\n\r\n\r\n    //add a function to purchase pet with the pet id\r\n    function purchasePet(uint _id) public payable {\r\n        // Fetch the product\r\n        Pet memory petData = pets[_id];\r\n        // Fetch the owner\r\n        uint256 curOwnerId = petData.ownershipRecords.length;\r\n        address payable seller = petData.ownershipRecords[curOwnerId-1].ownerId;\r\n        // Make sure the product has a valid id\r\n        require(petCount > 0 && bytes(petData.petInfo.id).length != 0, \"Pet Id cannot be empty\" );\r\n        // Require that there is enough Ether in the transaction\r\n        require(msg.value >= petData.petInfo.price);\r\n        // Require that the product has not been purchased already\r\n        require(petData.petInfo.status == PetStatus.Available);\r\n        // Require that the buyer is not the seller\r\n        require(seller != msg.sender);\r\n        // Transfer ownership to the buyer\r\n        //petData.ownershipRecords[curOwnerId ++].ownerId = payable(msg.sender);\r\n        // Mark as purchased\r\n        petData.petInfo.status = PetStatus.Sold;\r\n        // Update the pet information\r\n        pets[_id].petInfo = petData.petInfo;\r\n        // Pay the seller by sending them Ether\r\n        payable(seller).transfer(msg.value);\r\n        // Trigger an event\r\n        emit PetPurchased(petCount, petData.petInfo.name, petData.petInfo.price, payable(msg.sender), PetStatus.Sold);\r\n    }\r\n\r\n\r\n}\r\n\r\n",
  "sourcePath": "C:\\Users\\23030977\\Blockchain\\MetaPetProjectDApp\\contracts\\PetContract.sol",
  "compiler": {
    "name": "solc",
    "version": "0.8.19+commit.7dd6d404.Emscripten.clang"
  },
  "schemaVersion": "3.4.16",
  "updatedAt": "2025-01-24T02:05:28.286Z",
  "networkType": "ethereum",
  "devdoc": {
    "kind": "dev",
    "methods": {},
    "version": 1
  },
  "userdoc": {
    "kind": "user",
    "methods": {},
    "version": 1
  }
}